{
  "_format": "hh-sol-artifact-1",
  "contractName": "GenToken",
  "sourceName": "contracts/GenToken.sol",
  "abi": [
    {
      "inputs": [],
      "stateMutability": "nonpayable",
      "type": "constructor"
    },
    {
      "inputs": [],
      "name": "ERC721EnumerableForbiddenBatchMint",
      "type": "error"
    },
    {
      "inputs": [
        {
          "internalType": "address",
          "name": "sender",
          "type": "address"
        },
        {
          "internalType": "uint256",
          "name": "tokenId",
          "type": "uint256"
        },
        {
          "internalType": "address",
          "name": "owner",
          "type": "address"
        }
      ],
      "name": "ERC721IncorrectOwner",
      "type": "error"
    },
    {
      "inputs": [
        {
          "internalType": "address",
          "name": "operator",
          "type": "address"
        },
        {
          "internalType": "uint256",
          "name": "tokenId",
          "type": "uint256"
        }
      ],
      "name": "ERC721InsufficientApproval",
      "type": "error"
    },
    {
      "inputs": [
        {
          "internalType": "address",
          "name": "approver",
          "type": "address"
        }
      ],
      "name": "ERC721InvalidApprover",
      "type": "error"
    },
    {
      "inputs": [
        {
          "internalType": "address",
          "name": "operator",
          "type": "address"
        }
      ],
      "name": "ERC721InvalidOperator",
      "type": "error"
    },
    {
      "inputs": [
        {
          "internalType": "address",
          "name": "owner",
          "type": "address"
        }
      ],
      "name": "ERC721InvalidOwner",
      "type": "error"
    },
    {
      "inputs": [
        {
          "internalType": "address",
          "name": "receiver",
          "type": "address"
        }
      ],
      "name": "ERC721InvalidReceiver",
      "type": "error"
    },
    {
      "inputs": [
        {
          "internalType": "address",
          "name": "sender",
          "type": "address"
        }
      ],
      "name": "ERC721InvalidSender",
      "type": "error"
    },
    {
      "inputs": [
        {
          "internalType": "uint256",
          "name": "tokenId",
          "type": "uint256"
        }
      ],
      "name": "ERC721NonexistentToken",
      "type": "error"
    },
    {
      "inputs": [
        {
          "internalType": "address",
          "name": "owner",
          "type": "address"
        },
        {
          "internalType": "uint256",
          "name": "index",
          "type": "uint256"
        }
      ],
      "name": "ERC721OutOfBoundsIndex",
      "type": "error"
    },
    {
      "anonymous": false,
      "inputs": [
        {
          "indexed": true,
          "internalType": "address",
          "name": "owner",
          "type": "address"
        },
        {
          "indexed": true,
          "internalType": "address",
          "name": "approved",
          "type": "address"
        },
        {
          "indexed": true,
          "internalType": "uint256",
          "name": "tokenId",
          "type": "uint256"
        }
      ],
      "name": "Approval",
      "type": "event"
    },
    {
      "anonymous": false,
      "inputs": [
        {
          "indexed": true,
          "internalType": "address",
          "name": "owner",
          "type": "address"
        },
        {
          "indexed": true,
          "internalType": "address",
          "name": "operator",
          "type": "address"
        },
        {
          "indexed": false,
          "internalType": "bool",
          "name": "approved",
          "type": "bool"
        }
      ],
      "name": "ApprovalForAll",
      "type": "event"
    },
    {
      "anonymous": false,
      "inputs": [
        {
          "indexed": false,
          "internalType": "uint256",
          "name": "_fromTokenId",
          "type": "uint256"
        },
        {
          "indexed": false,
          "internalType": "uint256",
          "name": "_toTokenId",
          "type": "uint256"
        }
      ],
      "name": "BatchMetadataUpdate",
      "type": "event"
    },
    {
      "anonymous": false,
      "inputs": [
        {
          "indexed": false,
          "internalType": "uint256",
          "name": "_tokenId",
          "type": "uint256"
        }
      ],
      "name": "MetadataUpdate",
      "type": "event"
    },
    {
      "anonymous": false,
      "inputs": [
        {
          "indexed": true,
          "internalType": "address",
          "name": "from",
          "type": "address"
        },
        {
          "indexed": true,
          "internalType": "address",
          "name": "to",
          "type": "address"
        },
        {
          "indexed": true,
          "internalType": "uint256",
          "name": "tokenId",
          "type": "uint256"
        }
      ],
      "name": "Transfer",
      "type": "event"
    },
    {
      "inputs": [
        {
          "internalType": "address",
          "name": "to",
          "type": "address"
        },
        {
          "internalType": "uint256",
          "name": "tokenId",
          "type": "uint256"
        }
      ],
      "name": "approve",
      "outputs": [],
      "stateMutability": "nonpayable",
      "type": "function"
    },
    {
      "inputs": [
        {
          "internalType": "address",
          "name": "owner",
          "type": "address"
        }
      ],
      "name": "balanceOf",
      "outputs": [
        {
          "internalType": "uint256",
          "name": "",
          "type": "uint256"
        }
      ],
      "stateMutability": "view",
      "type": "function"
    },
    {
      "inputs": [
        {
          "internalType": "uint256",
          "name": "tokenId",
          "type": "uint256"
        }
      ],
      "name": "getApproved",
      "outputs": [
        {
          "internalType": "address",
          "name": "",
          "type": "address"
        }
      ],
      "stateMutability": "view",
      "type": "function"
    },
    {
      "inputs": [
        {
          "internalType": "address",
          "name": "owner",
          "type": "address"
        },
        {
          "internalType": "address",
          "name": "operator",
          "type": "address"
        }
      ],
      "name": "isApprovedForAll",
      "outputs": [
        {
          "internalType": "bool",
          "name": "",
          "type": "bool"
        }
      ],
      "stateMutability": "view",
      "type": "function"
    },
    {
      "inputs": [],
      "name": "name",
      "outputs": [
        {
          "internalType": "string",
          "name": "",
          "type": "string"
        }
      ],
      "stateMutability": "view",
      "type": "function"
    },
    {
      "inputs": [
        {
          "internalType": "uint256",
          "name": "tokenId",
          "type": "uint256"
        }
      ],
      "name": "ownerOf",
      "outputs": [
        {
          "internalType": "address",
          "name": "",
          "type": "address"
        }
      ],
      "stateMutability": "view",
      "type": "function"
    },
    {
      "inputs": [
        {
          "internalType": "address",
          "name": "to",
          "type": "address"
        },
        {
          "internalType": "string",
          "name": "uri",
          "type": "string"
        }
      ],
      "name": "safeMint",
      "outputs": [],
      "stateMutability": "nonpayable",
      "type": "function"
    },
    {
      "inputs": [
        {
          "internalType": "address",
          "name": "from",
          "type": "address"
        },
        {
          "internalType": "address",
          "name": "to",
          "type": "address"
        },
        {
          "internalType": "uint256",
          "name": "tokenId",
          "type": "uint256"
        }
      ],
      "name": "safeTransferFrom",
      "outputs": [],
      "stateMutability": "nonpayable",
      "type": "function"
    },
    {
      "inputs": [
        {
          "internalType": "address",
          "name": "from",
          "type": "address"
        },
        {
          "internalType": "address",
          "name": "to",
          "type": "address"
        },
        {
          "internalType": "uint256",
          "name": "tokenId",
          "type": "uint256"
        },
        {
          "internalType": "bytes",
          "name": "data",
          "type": "bytes"
        }
      ],
      "name": "safeTransferFrom",
      "outputs": [],
      "stateMutability": "nonpayable",
      "type": "function"
    },
    {
      "inputs": [
        {
          "internalType": "address",
          "name": "operator",
          "type": "address"
        },
        {
          "internalType": "bool",
          "name": "approved",
          "type": "bool"
        }
      ],
      "name": "setApprovalForAll",
      "outputs": [],
      "stateMutability": "nonpayable",
      "type": "function"
    },
    {
      "inputs": [
        {
          "internalType": "bytes4",
          "name": "interfaceId",
          "type": "bytes4"
        }
      ],
      "name": "supportsInterface",
      "outputs": [
        {
          "internalType": "bool",
          "name": "",
          "type": "bool"
        }
      ],
      "stateMutability": "view",
      "type": "function"
    },
    {
      "inputs": [],
      "name": "symbol",
      "outputs": [
        {
          "internalType": "string",
          "name": "",
          "type": "string"
        }
      ],
      "stateMutability": "view",
      "type": "function"
    },
    {
      "inputs": [
        {
          "internalType": "uint256",
          "name": "index",
          "type": "uint256"
        }
      ],
      "name": "tokenByIndex",
      "outputs": [
        {
          "internalType": "uint256",
          "name": "",
          "type": "uint256"
        }
      ],
      "stateMutability": "view",
      "type": "function"
    },
    {
      "inputs": [
        {
          "internalType": "address",
          "name": "owner",
          "type": "address"
        },
        {
          "internalType": "uint256",
          "name": "index",
          "type": "uint256"
        }
      ],
      "name": "tokenOfOwnerByIndex",
      "outputs": [
        {
          "internalType": "uint256",
          "name": "",
          "type": "uint256"
        }
      ],
      "stateMutability": "view",
      "type": "function"
    },
    {
      "inputs": [
        {
          "internalType": "uint256",
          "name": "tokenId",
          "type": "uint256"
        }
      ],
      "name": "tokenURI",
      "outputs": [
        {
          "internalType": "string",
          "name": "",
          "type": "string"
        }
      ],
      "stateMutability": "view",
      "type": "function"
    },
    {
      "inputs": [],
      "name": "totalSupply",
      "outputs": [
        {
          "internalType": "uint256",
          "name": "",
          "type": "uint256"
        }
      ],
      "stateMutability": "view",
      "type": "function"
    },
    {
      "inputs": [
        {
          "internalType": "address",
          "name": "from",
          "type": "address"
        },
        {
          "internalType": "address",
          "name": "to",
          "type": "address"
        },
        {
          "internalType": "uint256",
          "name": "tokenId",
          "type": "uint256"
        }
      ],
      "name": "transferFrom",
      "outputs": [],
      "stateMutability": "nonpayable",
      "type": "function"
    }
  ],
  "bytecode": "0x60806040523480156200001157600080fd5b506040518060400160405280600881526020017f47656e546f6b656e0000000000000000000000000000000000000000000000008152506040518060400160405280600381526020017f474c54000000000000000000000000000000000000000000000000000000000081525081600090816200008f919062000324565b508060019081620000a1919062000324565b5050506200040b565b600081519050919050565b7f4e487b7100000000000000000000000000000000000000000000000000000000600052604160045260246000fd5b7f4e487b7100000000000000000000000000000000000000000000000000000000600052602260045260246000fd5b600060028204905060018216806200012c57607f821691505b602082108103620001425762000141620000e4565b5b50919050565b60008190508160005260206000209050919050565b60006020601f8301049050919050565b600082821b905092915050565b600060088302620001ac7fffffffffffffffffffffffffffffffffffffffffffffffffffffffffffffffff826200016d565b620001b886836200016d565b95508019841693508086168417925050509392505050565b6000819050919050565b6000819050919050565b600062000205620001ff620001f984620001d0565b620001da565b620001d0565b9050919050565b6000819050919050565b6200022183620001e4565b6200023962000230826200020c565b8484546200017a565b825550505050565b600090565b6200025062000241565b6200025d81848462000216565b505050565b5b8181101562000285576200027960008262000246565b60018101905062000263565b5050565b601f821115620002d4576200029e8162000148565b620002a9846200015d565b81016020851015620002b9578190505b620002d1620002c8856200015d565b83018262000262565b50505b505050565b600082821c905092915050565b6000620002f960001984600802620002d9565b1980831691505092915050565b6000620003148383620002e6565b9150826002028217905092915050565b6200032f82620000aa565b67ffffffffffffffff8111156200034b576200034a620000b5565b5b62000357825462000113565b6200036482828562000289565b600060209050601f8311600181146200039c576000841562000387578287015190505b62000393858262000306565b86555062000403565b601f198416620003ac8662000148565b60005b82811015620003d657848901518255600182019150602085019450602081019050620003af565b86831015620003f65784890151620003f2601f891682620002e6565b8355505b6001600288020188555050505b505050505050565b612b36806200041b6000396000f3fe608060405234801561001057600080fd5b506004361061010b5760003560e01c80634f6ccce7116100a2578063a22cb46511610071578063a22cb465146102de578063b88d4fde146102fa578063c87b56dd14610316578063d204c45e14610346578063e985e9c5146103625761010b565b80634f6ccce7146102305780636352211e1461026057806370a082311461029057806395d89b41146102c05761010b565b806318160ddd116100de57806318160ddd146101aa57806323b872dd146101c85780632f745c59146101e457806342842e0e146102145761010b565b806301ffc9a71461011057806306fdde0314610140578063081812fc1461015e578063095ea7b31461018e575b600080fd5b61012a60048036038101906101259190611efc565b610392565b6040516101379190611f44565b60405180910390f35b6101486103a4565b6040516101559190611fef565b60405180910390f35b61017860048036038101906101739190612047565b610436565b60405161018591906120b5565b60405180910390f35b6101a860048036038101906101a391906120fc565b610452565b005b6101b2610468565b6040516101bf919061214b565b60405180910390f35b6101e260048036038101906101dd9190612166565b610475565b005b6101fe60048036038101906101f991906120fc565b610577565b60405161020b919061214b565b60405180910390f35b61022e60048036038101906102299190612166565b610620565b005b61024a60048036038101906102459190612047565b610640565b604051610257919061214b565b60405180910390f35b61027a60048036038101906102759190612047565b6106b6565b60405161028791906120b5565b60405180910390f35b6102aa60048036038101906102a591906121b9565b6106c8565b6040516102b7919061214b565b60405180910390f35b6102c8610782565b6040516102d59190611fef565b60405180910390f35b6102f860048036038101906102f39190612212565b610814565b005b610314600480360381019061030f9190612387565b61082a565b005b610330600480360381019061032b9190612047565b610847565b60405161033d9190611fef565b60405180910390f35b610360600480360381019061035b91906124ab565b610859565b005b61037c60048036038101906103779190612507565b61088d565b6040516103899190611f44565b60405180910390f35b600061039d82610921565b9050919050565b6060600080546103b390612576565b80601f01602080910402602001604051908101604052809291908181526020018280546103df90612576565b801561042c5780601f106104015761010080835404028352916020019161042c565b820191906000526020600020905b81548152906001019060200180831161040f57829003601f168201915b5050505050905090565b600061044182610982565b5061044b82610a0a565b9050919050565b610464828261045f610a47565b610a4f565b5050565b6000600880549050905090565b600073ffffffffffffffffffffffffffffffffffffffff168273ffffffffffffffffffffffffffffffffffffffff16036104e75760006040517f64a0ae920000000000000000000000000000000000000000000000000000000081526004016104de91906120b5565b60405180910390fd5b60006104fb83836104f6610a47565b610a61565b90508373ffffffffffffffffffffffffffffffffffffffff168173ffffffffffffffffffffffffffffffffffffffff1614610571578382826040517f64283d7b000000000000000000000000000000000000000000000000000000008152600401610568939291906125a7565b60405180910390fd5b50505050565b6000610582836106c8565b82106105c75782826040517fa57d13dc0000000000000000000000000000000000000000000000000000000081526004016105be9291906125de565b60405180910390fd5b600660008473ffffffffffffffffffffffffffffffffffffffff1673ffffffffffffffffffffffffffffffffffffffff168152602001908152602001600020600083815260200190815260200160002054905092915050565b61063b8383836040518060200160405280600081525061082a565b505050565b600061064a610468565b8210610690576000826040517fa57d13dc0000000000000000000000000000000000000000000000000000000081526004016106879291906125de565b60405180910390fd5b600882815481106106a4576106a3612607565b5b90600052602060002001549050919050565b60006106c182610982565b9050919050565b60008073ffffffffffffffffffffffffffffffffffffffff168273ffffffffffffffffffffffffffffffffffffffff160361073b5760006040517f89c62b6400000000000000000000000000000000000000000000000000000000815260040161073291906120b5565b60405180910390fd5b600360008373ffffffffffffffffffffffffffffffffffffffff1673ffffffffffffffffffffffffffffffffffffffff168152602001908152602001600020549050919050565b60606001805461079190612576565b80601f01602080910402602001604051908101604052809291908181526020018280546107bd90612576565b801561080a5780601f106107df5761010080835404028352916020019161080a565b820191906000526020600020905b8154815290600101906020018083116107ed57829003601f168201915b5050505050905090565b61082661081f610a47565b8383610a77565b5050565b610835848484610475565b61084184848484610be6565b50505050565b606061085282610d9d565b9050919050565b6000600b600081548092919061086e90612665565b91905055905061087e8382610eb0565b6108888183610ece565b505050565b6000600560008473ffffffffffffffffffffffffffffffffffffffff1673ffffffffffffffffffffffffffffffffffffffff16815260200190815260200160002060008373ffffffffffffffffffffffffffffffffffffffff1673ffffffffffffffffffffffffffffffffffffffff16815260200190815260200160002060009054906101000a900460ff16905092915050565b6000634906490660e01b7bffffffffffffffffffffffffffffffffffffffffffffffffffffffff1916827bffffffffffffffffffffffffffffffffffffffffffffffffffffffff1916148061097b575061097a82610f2a565b5b9050919050565b60008061098e83610fa4565b9050600073ffffffffffffffffffffffffffffffffffffffff168173ffffffffffffffffffffffffffffffffffffffff1603610a0157826040517f7e2732890000000000000000000000000000000000000000000000000000000081526004016109f8919061214b565b60405180910390fd5b80915050919050565b60006004600083815260200190815260200160002060009054906101000a900473ffffffffffffffffffffffffffffffffffffffff169050919050565b600033905090565b610a5c8383836001610fe1565b505050565b6000610a6e8484846111a6565b90509392505050565b600073ffffffffffffffffffffffffffffffffffffffff168273ffffffffffffffffffffffffffffffffffffffff1603610ae857816040517f5b08ba18000000000000000000000000000000000000000000000000000000008152600401610adf91906120b5565b60405180910390fd5b80600560008573ffffffffffffffffffffffffffffffffffffffff1673ffffffffffffffffffffffffffffffffffffffff16815260200190815260200160002060008473ffffffffffffffffffffffffffffffffffffffff1673ffffffffffffffffffffffffffffffffffffffff16815260200190815260200160002060006101000a81548160ff0219169083151502179055508173ffffffffffffffffffffffffffffffffffffffff168373ffffffffffffffffffffffffffffffffffffffff167f17307eab39ab6107e8899845ad3d59bd9653f200f220920489ca2b5937696c3183604051610bd99190611f44565b60405180910390a3505050565b60008373ffffffffffffffffffffffffffffffffffffffff163b1115610d97578273ffffffffffffffffffffffffffffffffffffffff1663150b7a02610c2a610a47565b8685856040518563ffffffff1660e01b8152600401610c4c9493929190612702565b6020604051808303816000875af1925050508015610c8857506040513d601f19601f82011682018060405250810190610c859190612763565b60015b610d0c573d8060008114610cb8576040519150601f19603f3d011682016040523d82523d6000602084013e610cbd565b606091505b506000815103610d0457836040517f64a0ae92000000000000000000000000000000000000000000000000000000008152600401610cfb91906120b5565b60405180910390fd5b805181602001fd5b63150b7a0260e01b7bffffffffffffffffffffffffffffffffffffffffffffffffffffffff1916817bffffffffffffffffffffffffffffffffffffffffffffffffffffffff191614610d9557836040517f64a0ae92000000000000000000000000000000000000000000000000000000008152600401610d8c91906120b5565b60405180910390fd5b505b50505050565b6060610da882610982565b506000600a60008481526020019081526020016000208054610dc990612576565b80601f0160208091040260200160405190810160405280929190818152602001828054610df590612576565b8015610e425780601f10610e1757610100808354040283529160200191610e42565b820191906000526020600020905b815481529060010190602001808311610e2557829003601f168201915b505050505090506000610e536112c3565b90506000815103610e68578192505050610eab565b600082511115610e9d578082604051602001610e859291906127cc565b60405160208183030381529060405292505050610eab565b610ea684611300565b925050505b919050565b610eca828260405180602001604052806000815250611369565b5050565b80600a60008481526020019081526020016000209081610eee919061299c565b507ff8e1a15aba9398e019f0b49df1a4fde98ee17ae345cb5f6b5e2c27f5033e8ce782604051610f1e919061214b565b60405180910390a15050565b60007f780e9d63000000000000000000000000000000000000000000000000000000007bffffffffffffffffffffffffffffffffffffffffffffffffffffffff1916827bffffffffffffffffffffffffffffffffffffffffffffffffffffffff19161480610f9d5750610f9c82611385565b5b9050919050565b60006002600083815260200190815260200160002060009054906101000a900473ffffffffffffffffffffffffffffffffffffffff169050919050565b808061101a5750600073ffffffffffffffffffffffffffffffffffffffff168273ffffffffffffffffffffffffffffffffffffffff1614155b1561114e57600061102a84610982565b9050600073ffffffffffffffffffffffffffffffffffffffff168373ffffffffffffffffffffffffffffffffffffffff161415801561109557508273ffffffffffffffffffffffffffffffffffffffff168173ffffffffffffffffffffffffffffffffffffffff1614155b80156110a857506110a6818461088d565b155b156110ea57826040517fa9fbf51f0000000000000000000000000000000000000000000000000000000081526004016110e191906120b5565b60405180910390fd5b811561114c57838573ffffffffffffffffffffffffffffffffffffffff168273ffffffffffffffffffffffffffffffffffffffff167f8c5be1e5ebec7d5bd14f71427d1e84f3dd0314c0f7b2291e5b200ac8c7c3b92560405160405180910390a45b505b836004600085815260200190815260200160002060006101000a81548173ffffffffffffffffffffffffffffffffffffffff021916908373ffffffffffffffffffffffffffffffffffffffff16021790555050505050565b6000806111b4858585611467565b9050600073ffffffffffffffffffffffffffffffffffffffff168173ffffffffffffffffffffffffffffffffffffffff16036111f8576111f384611681565b611237565b8473ffffffffffffffffffffffffffffffffffffffff168173ffffffffffffffffffffffffffffffffffffffff16146112365761123581856116ca565b5b5b600073ffffffffffffffffffffffffffffffffffffffff168573ffffffffffffffffffffffffffffffffffffffff1603611279576112748461182b565b6112b8565b8473ffffffffffffffffffffffffffffffffffffffff168173ffffffffffffffffffffffffffffffffffffffff16146112b7576112b685856118fc565b5b5b809150509392505050565b60606040518060400160405280600781526020017f697066733a2f2f00000000000000000000000000000000000000000000000000815250905090565b606061130b82610982565b5060006113166112c3565b905060008151116113365760405180602001604052806000815250611361565b8061134084611987565b6040516020016113519291906127cc565b6040516020818303038152906040525b915050919050565b6113738383611a55565b6113806000848484610be6565b505050565b60007f80ac58cd000000000000000000000000000000000000000000000000000000007bffffffffffffffffffffffffffffffffffffffffffffffffffffffff1916827bffffffffffffffffffffffffffffffffffffffffffffffffffffffff1916148061145057507f5b5e139f000000000000000000000000000000000000000000000000000000007bffffffffffffffffffffffffffffffffffffffffffffffffffffffff1916827bffffffffffffffffffffffffffffffffffffffffffffffffffffffff1916145b80611460575061145f82611b4e565b5b9050919050565b60008061147384610fa4565b9050600073ffffffffffffffffffffffffffffffffffffffff168373ffffffffffffffffffffffffffffffffffffffff16146114b5576114b4818486611bb8565b5b600073ffffffffffffffffffffffffffffffffffffffff168173ffffffffffffffffffffffffffffffffffffffff1614611546576114f7600085600080610fe1565b6001600360008373ffffffffffffffffffffffffffffffffffffffff1673ffffffffffffffffffffffffffffffffffffffff168152602001908152602001600020600082825403925050819055505b600073ffffffffffffffffffffffffffffffffffffffff168573ffffffffffffffffffffffffffffffffffffffff16146115c9576001600360008773ffffffffffffffffffffffffffffffffffffffff1673ffffffffffffffffffffffffffffffffffffffff168152602001908152602001600020600082825401925050819055505b846002600086815260200190815260200160002060006101000a81548173ffffffffffffffffffffffffffffffffffffffff021916908373ffffffffffffffffffffffffffffffffffffffff160217905550838573ffffffffffffffffffffffffffffffffffffffff168273ffffffffffffffffffffffffffffffffffffffff167fddf252ad1be2c89b69c2b068fc378daa952ba7f163c4a11628f55a4df523b3ef60405160405180910390a4809150509392505050565b6008805490506009600083815260200190815260200160002081905550600881908060018154018082558091505060019003906000526020600020016000909190919091505550565b60006116d5836106c8565b90506000600760008481526020019081526020016000205490508181146117ba576000600660008673ffffffffffffffffffffffffffffffffffffffff1673ffffffffffffffffffffffffffffffffffffffff168152602001908152602001600020600084815260200190815260200160002054905080600660008773ffffffffffffffffffffffffffffffffffffffff1673ffffffffffffffffffffffffffffffffffffffff168152602001908152602001600020600084815260200190815260200160002081905550816007600083815260200190815260200160002081905550505b6007600084815260200190815260200160002060009055600660008573ffffffffffffffffffffffffffffffffffffffff1673ffffffffffffffffffffffffffffffffffffffff16815260200190815260200160002060008381526020019081526020016000206000905550505050565b6000600160088054905061183f9190612a6e565b905060006009600084815260200190815260200160002054905060006008838154811061186f5761186e612607565b5b90600052602060002001549050806008838154811061189157611890612607565b5b9060005260206000200181905550816009600083815260200190815260200160002081905550600960008581526020019081526020016000206000905560088054806118e0576118df612aa2565b5b6001900381819060005260206000200160009055905550505050565b60006001611909846106c8565b6119139190612a6e565b905081600660008573ffffffffffffffffffffffffffffffffffffffff1673ffffffffffffffffffffffffffffffffffffffff168152602001908152602001600020600083815260200190815260200160002081905550806007600084815260200190815260200160002081905550505050565b60606000600161199684611c7c565b01905060008167ffffffffffffffff8111156119b5576119b461225c565b5b6040519080825280601f01601f1916602001820160405280156119e75781602001600182028036833780820191505090505b509050600082602001820190505b600115611a4a578080600190039150507f3031323334353637383961626364656600000000000000000000000000000000600a86061a8153600a8581611a3e57611a3d612ad1565b5b049450600085036119f5575b819350505050919050565b600073ffffffffffffffffffffffffffffffffffffffff168273ffffffffffffffffffffffffffffffffffffffff1603611ac75760006040517f64a0ae92000000000000000000000000000000000000000000000000000000008152600401611abe91906120b5565b60405180910390fd5b6000611ad583836000610a61565b9050600073ffffffffffffffffffffffffffffffffffffffff168173ffffffffffffffffffffffffffffffffffffffff1614611b495760006040517f73c6ac6e000000000000000000000000000000000000000000000000000000008152600401611b4091906120b5565b60405180910390fd5b505050565b60007f01ffc9a7000000000000000000000000000000000000000000000000000000007bffffffffffffffffffffffffffffffffffffffffffffffffffffffff1916827bffffffffffffffffffffffffffffffffffffffffffffffffffffffff1916149050919050565b611bc3838383611dcf565b611c7757600073ffffffffffffffffffffffffffffffffffffffff168373ffffffffffffffffffffffffffffffffffffffff1603611c3857806040517f7e273289000000000000000000000000000000000000000000000000000000008152600401611c2f919061214b565b60405180910390fd5b81816040517f177e802f000000000000000000000000000000000000000000000000000000008152600401611c6e9291906125de565b60405180910390fd5b505050565b600080600090507a184f03e93ff9f4daa797ed6e38ed64bf6a1f0100000000000000008310611cda577a184f03e93ff9f4daa797ed6e38ed64bf6a1f0100000000000000008381611cd057611ccf612ad1565b5b0492506040810190505b6d04ee2d6d415b85acef81000000008310611d17576d04ee2d6d415b85acef81000000008381611d0d57611d0c612ad1565b5b0492506020810190505b662386f26fc100008310611d4657662386f26fc100008381611d3c57611d3b612ad1565b5b0492506010810190505b6305f5e1008310611d6f576305f5e1008381611d6557611d64612ad1565b5b0492506008810190505b6127108310611d94576127108381611d8a57611d89612ad1565b5b0492506004810190505b60648310611db75760648381611dad57611dac612ad1565b5b0492506002810190505b600a8310611dc6576001810190505b80915050919050565b60008073ffffffffffffffffffffffffffffffffffffffff168373ffffffffffffffffffffffffffffffffffffffff1614158015611e8757508273ffffffffffffffffffffffffffffffffffffffff168473ffffffffffffffffffffffffffffffffffffffff161480611e485750611e47848461088d565b5b80611e8657508273ffffffffffffffffffffffffffffffffffffffff16611e6e83610a0a565b73ffffffffffffffffffffffffffffffffffffffff16145b5b90509392505050565b6000604051905090565b600080fd5b600080fd5b60007fffffffff0000000000000000000000000000000000000000000000000000000082169050919050565b611ed981611ea4565b8114611ee457600080fd5b50565b600081359050611ef681611ed0565b92915050565b600060208284031215611f1257611f11611e9a565b5b6000611f2084828501611ee7565b91505092915050565b60008115159050919050565b611f3e81611f29565b82525050565b6000602082019050611f596000830184611f35565b92915050565b600081519050919050565b600082825260208201905092915050565b60005b83811015611f99578082015181840152602081019050611f7e565b60008484015250505050565b6000601f19601f8301169050919050565b6000611fc182611f5f565b611fcb8185611f6a565b9350611fdb818560208601611f7b565b611fe481611fa5565b840191505092915050565b600060208201905081810360008301526120098184611fb6565b905092915050565b6000819050919050565b61202481612011565b811461202f57600080fd5b50565b6000813590506120418161201b565b92915050565b60006020828403121561205d5761205c611e9a565b5b600061206b84828501612032565b91505092915050565b600073ffffffffffffffffffffffffffffffffffffffff82169050919050565b600061209f82612074565b9050919050565b6120af81612094565b82525050565b60006020820190506120ca60008301846120a6565b92915050565b6120d981612094565b81146120e457600080fd5b50565b6000813590506120f6816120d0565b92915050565b6000806040838503121561211357612112611e9a565b5b6000612121858286016120e7565b925050602061213285828601612032565b9150509250929050565b61214581612011565b82525050565b6000602082019050612160600083018461213c565b92915050565b60008060006060848603121561217f5761217e611e9a565b5b600061218d868287016120e7565b935050602061219e868287016120e7565b92505060406121af86828701612032565b9150509250925092565b6000602082840312156121cf576121ce611e9a565b5b60006121dd848285016120e7565b91505092915050565b6121ef81611f29565b81146121fa57600080fd5b50565b60008135905061220c816121e6565b92915050565b6000806040838503121561222957612228611e9a565b5b6000612237858286016120e7565b9250506020612248858286016121fd565b9150509250929050565b600080fd5b600080fd5b7f4e487b7100000000000000000000000000000000000000000000000000000000600052604160045260246000fd5b61229482611fa5565b810181811067ffffffffffffffff821117156122b3576122b261225c565b5b80604052505050565b60006122c6611e90565b90506122d2828261228b565b919050565b600067ffffffffffffffff8211156122f2576122f161225c565b5b6122fb82611fa5565b9050602081019050919050565b82818337600083830152505050565b600061232a612325846122d7565b6122bc565b90508281526020810184848401111561234657612345612257565b5b612351848285612308565b509392505050565b600082601f83011261236e5761236d612252565b5b813561237e848260208601612317565b91505092915050565b600080600080608085870312156123a1576123a0611e9a565b5b60006123af878288016120e7565b94505060206123c0878288016120e7565b93505060406123d187828801612032565b925050606085013567ffffffffffffffff8111156123f2576123f1611e9f565b5b6123fe87828801612359565b91505092959194509250565b600067ffffffffffffffff8211156124255761242461225c565b5b61242e82611fa5565b9050602081019050919050565b600061244e6124498461240a565b6122bc565b90508281526020810184848401111561246a57612469612257565b5b612475848285612308565b509392505050565b600082601f83011261249257612491612252565b5b81356124a284826020860161243b565b91505092915050565b600080604083850312156124c2576124c1611e9a565b5b60006124d0858286016120e7565b925050602083013567ffffffffffffffff8111156124f1576124f0611e9f565b5b6124fd8582860161247d565b9150509250929050565b6000806040838503121561251e5761251d611e9a565b5b600061252c858286016120e7565b925050602061253d858286016120e7565b9150509250929050565b7f4e487b7100000000000000000000000000000000000000000000000000000000600052602260045260246000fd5b6000600282049050600182168061258e57607f821691505b6020821081036125a1576125a0612547565b5b50919050565b60006060820190506125bc60008301866120a6565b6125c9602083018561213c565b6125d660408301846120a6565b949350505050565b60006040820190506125f360008301856120a6565b612600602083018461213c565b9392505050565b7f4e487b7100000000000000000000000000000000000000000000000000000000600052603260045260246000fd5b7f4e487b7100000000000000000000000000000000000000000000000000000000600052601160045260246000fd5b600061267082612011565b91507fffffffffffffffffffffffffffffffffffffffffffffffffffffffffffffffff82036126a2576126a1612636565b5b600182019050919050565b600081519050919050565b600082825260208201905092915050565b60006126d4826126ad565b6126de81856126b8565b93506126ee818560208601611f7b565b6126f781611fa5565b840191505092915050565b600060808201905061271760008301876120a6565b61272460208301866120a6565b612731604083018561213c565b818103606083015261274381846126c9565b905095945050505050565b60008151905061275d81611ed0565b92915050565b60006020828403121561277957612778611e9a565b5b60006127878482850161274e565b91505092915050565b600081905092915050565b60006127a682611f5f565b6127b08185612790565b93506127c0818560208601611f7b565b80840191505092915050565b60006127d8828561279b565b91506127e4828461279b565b91508190509392505050565b60008190508160005260206000209050919050565b60006020601f8301049050919050565b600082821b905092915050565b6000600883026128527fffffffffffffffffffffffffffffffffffffffffffffffffffffffffffffffff82612815565b61285c8683612815565b95508019841693508086168417925050509392505050565b6000819050919050565b600061289961289461288f84612011565b612874565b612011565b9050919050565b6000819050919050565b6128b38361287e565b6128c76128bf826128a0565b848454612822565b825550505050565b600090565b6128dc6128cf565b6128e78184846128aa565b505050565b5b8181101561290b576129006000826128d4565b6001810190506128ed565b5050565b601f82111561295057612921816127f0565b61292a84612805565b81016020851015612939578190505b61294d61294585612805565b8301826128ec565b50505b505050565b600082821c905092915050565b600061297360001984600802612955565b1980831691505092915050565b600061298c8383612962565b9150826002028217905092915050565b6129a582611f5f565b67ffffffffffffffff8111156129be576129bd61225c565b5b6129c88254612576565b6129d382828561290f565b600060209050601f831160018114612a0657600084156129f4578287015190505b6129fe8582612980565b865550612a66565b601f198416612a14866127f0565b60005b82811015612a3c57848901518255600182019150602085019450602081019050612a17565b86831015612a595784890151612a55601f891682612962565b8355505b6001600288020188555050505b505050505050565b6000612a7982612011565b9150612a8483612011565b9250828203905081811115612a9c57612a9b612636565b5b92915050565b7f4e487b7100000000000000000000000000000000000000000000000000000000600052603160045260246000fd5b7f4e487b7100000000000000000000000000000000000000000000000000000000600052601260045260246000fdfea2646970667358221220eb29317a0704c2e7e3ec09520a240764067ea11f691b56de4ce8d92779de0f8164736f6c63430008180033",
  "linkReferences": {},
  "deployedLinkReferences": {}
}